:020000040800F2
:10000000080E002061020008D7120008B91200088B
:10001000D3120008170900080B1C0008000000009C
:100020000000000000000000000000009D16000815
:10003000CD09000800000000F5130008B119000800
:100040007B0200087B0200087B0200087B0200089C
:100050007B0200087B0200087B0200087B0200088C
:100060007B0200087B0200087B0200087B0200087C
:100070007B0200087B0200087B0200087B0200086C
:100080007B0200087B0200087B0200087B0200085C
:100090007B0200087B0200087B0200087B0200084C
:1000A0007B0200087B0200087B0200087B0200083C
:1000B0007B0200087B0200087B0200087B0200082C
:1000C0007B0200087B0200087B0200087B0200081C
:1000D0007B0200081D1A00087B0200087B02000852
:1000E0007B0200087B0200087B0200087B020008FC
:1000F0007B0200087B0200087B0200087B020008EC
:100100007B0200087B0200087B0200087B020008DB
:100110007B0200087B0200087B0200087B020008CB
:100120007B0200087B0200087B0200087B020008BB
:100130007B0200087B0200087B0200087B020008AB
:100140007B0200087B0200087B0200087B0200089B
:100150007B0200087B0200087B0200087B0200088B
:100160007B0200087B0200087B0200087B0200087B
:100170007B0200087B0200087B0200087B0200086B
:100180007B0200087B02000800F002F800F050F843
:100190000AA090E8000C82448344AAF10107DA45E2
:1001A00001D100F045F8AFF2090EBAE80F0013F0E4
:1001B000010F18BFFB1A43F0010318478824000001
:1001C000A8240000103A24BF78C878C1FAD8520792
:1001D00024BF30C830C144BF04680C6070470000C1
:1001E0000023002400250026103A28BF78C1FBD840
:1001F000520728BF30C148BF0B607047642900F028
:10020000C780782900F00081732900F03283002034
:1002100070471FB502F058F900F09EFA0400002064
:10022000002102F03BF9401C60601FBD10B510BDFD
:1002300000F03EFB1146FFF7ECFF02F041F800F042
:100240005CFB03B4FFF7F2FF03BC01F056FD0000B6
:1002500030BF72B6704762B6704780F30888704747
:100260000948804709480047FEE7FEE7FEE7FEE74A
:10027000FEE7FEE7FEE7FEE7FEE7FEE70448054986
:10028000034A054B70470000B519000889010008B2
:10029000080A0020080E0020080A0020704700000D
:1002A00010B500F059FA001D10BD00BFF12100008B
:1002B0000FB4044910B503AA029800F0DFFA10BC8D
:1002C0005DF814FB040000200FB41CB5074B06AA10
:1002D0007B4469460090059800F0A1FA0020694629
:1002E00000F0B0FA1CBC5DF814FB000071050000C2
:1002F00070B5044685690068C10601D5302600E066
:100300002026C00707D070BDD4E9012130469047B0
:10031000206A401C20626D1EF6D570BD70B5044683
:1003200085690078C00707D170BDD4E9012120207C
:100330009047206A401C20626D1EF6D570BD70B5D6
:100340000C460546012A05D02878800600D5EA69C2
:10035000002302E0012305E05B1C934202D2E05C33
:100360000028F9D1A869E618C01AA861286A1844BB
:1003700028622846FFF7BCFF04E0D5E9012114F804
:10038000010B9047B442F8D32846FFF7C7FF70BD72
:100390002DE9F0410646002410687529314616A55E
:1003A00010D0AFF30080002802DA404213A507E026
:1003B00031688A0701D512A502E0490704D511A5C5
:1003C000012401E0AFF3008000210A2206F1240796
:1003D00009E0B0FBF2FCB0FBF2F302FB1C00303092
:1003E00078541846491C0028F3D123462A46304643
:1003F000BDE8F04100F0B4B9000000002D0000009D
:100400002B0000002000000070B504460D46214678
:100410001068AFF300802188090502D50F4A7A449D
:1004200002E00E4A7A440E32002104F1240305E072
:1004300000F00F060009965D5E54491C0028F7D1B4
:1004400020780023000704D5702D02D009B10223C3
:1004500011322046BDE8704000F082B93221000020
:100460002DE9F05F894604464FF0000ADFF824B119
:10047000FB44C0F820A02046E168884700287DD0D2
:10048000252806D0D4E901219047206A401C20622B
:10049000F1E700255F462046E168884720280646A8
:1004A00007DB312E05D2B81910F8200C08B105432E
:1004B000F1E7A80701D525F00405C4F81CA0002722
:1004C000C4F818A02A2E09D0304601F00FFC38B32A
:1004D00004EB8708303EC8F8186019E059F8041B8F
:1004E000204604EB87029161E1688847012F0646A8
:1004F00018D1E069002820DA25F020051DE0D8F8A1
:10050000180000EB800006EB40003038C8F81800F7
:100510002046E1688847064601F0E8FB0028EED156
:10052000012F0AD02E2E08D12046E16888477F1C73
:100530000646022F45F02005C4DBA069002803DA37
:10054000404245F00105A061E80701D025F0100503
:10055000A6B1A6F14100192802D8203645F400655D
:100560004A463146204625604D46FFF747FE60B1BA
:10057000012807D0ED1D25F0070000E007E000F19D
:10058000080978E705F1040975E730467AE7206A3B
:10059000BDE8F09F0821000040EA0103024630B5A3
:1005A0009B0710D14FF0013400E008C208C91D1BA1
:1005B0009D4315EAC41FF8D013F0FF0102F8011B98
:1005C0000DD01B0AF8E711F8013B002B02F8013BA4
:1005D00005D011F8013B002B02F8013BF3D130BDEF
:1005E00010B5431C02E010F8011B71B18107FAD16C
:1005F0004FF0013202C88C1A8C4314EAC211F9D0B0
:10060000C01A0A0603D0C01E10BDC01A10BD0A04CD
:1006100001D0801E10BD0902FCD0401E10BD10B5D7
:10062000203AC0F00B80B1E81850203AA0E81850EA
:10063000B1E81850A0E81850BFF4F5AF5FEA027CAB
:1006400024BFB1E81850A0E8185044BF18C918C01A
:10065000BDE810405FEA827C24BF51F8043B40F8BB
:10066000043B08BF7047D20728BF31F8023B48BFA0
:1006700011F8012B28BF20F8023B48BF00F8012BDE
:1006800070474FF0000200B5134694469646203955
:1006900022BFA0E80C50A0E80C50B1F12001BFF43B
:1006A000F7AF090728BFA0E80C5048BF0CC05DF8A1
:1006B00004EB890028BF40F8042B08BF704748BFEF
:1006C00020F8022B11F0804F18BF00F8012B704763
:1006D0004FF0013C50F8042B51F8043B9A4221D1D1
:1006E000A2EB0C03934313EACC1317D150F8042B5D
:1006F00051F8043B9A4215D1A2EB0C03934313EA41
:10070000CC130BD150F8042B51F8043B9A4209D179
:10071000A2EB0C03934313EACC13DBD04FF00000A1
:10072000704700BFD01A01BAB1FA81F101F0180187
:1007300022FA01F0CB40C1F12001DBB2C0B2C01AF5
:100740002CFA01F3D11A914311EAC311E6D1704793
:10075000704770477047704700487047C4090020D1
:100760002DE9F0470D4699469246044600F12408CB
:100770000168880604D5E06921F01001216000E0DD
:100780000120A84201DD471B00E00027A1697A197A
:1007900002EB0900081AA0612078C00602D42046A6
:1007A000FFF7A6FD002608E0D4E901211AF80600AB
:1007B0009047206A401C761C20624E45F4DB20786E
:1007C000C0060AD52046FFF793FD06E0D4E90121D3
:1007D00030209047206A401C2062381EA7F1010794
:1007E000F4DC07E0D4E9012118F805009047206AFD
:1007F000401C2062281EA5F10105F3DC2046FFF70E
:100800008DFD2078000602D50220BDE8F08701208A
:10081000FBE7000001694A1C02610878704700B5D7
:100820008FB0CDE901310021059105497944CDE929
:10083000031011466846FFF713FE0FB000BD00001D
:10084000E5FFFFFF0A6802F8010B0A60704710B568
:10085000436913B1AFF3008001E0FFF770FD0120A1
:1008600010BD127800F124010A7000224A700122A2
:10087000EDE711684FF0FF32E9E70000074B70B574
:100880000D467B44FFF7CBFF0446284600F00CF8EA
:1008900010B14FF0FF3070BD204670BD3B15000019
:1008A00000487047A4090020007B00F080007047DA
:1008B0007546FFF7F5FFAE4605006946534620F042
:1008C0000700854618B020B5FFF7D8FCBDE82040EA
:1008D0004FF000064FF000074FF000084FF0000BFC
:1008E00021F00701AC46ACE8C009ACE8C009ACE8AF
:1008F000C009ACE8C0098D4670470446AFF30080DC
:100900002046FFF79EFC70B504462046FFF768FEC0
:100910000546284670BD00BFFEE7000010B5002464
:100920002021064801F0A6F830B1044801F068F92A
:10093000C4B2002002490870204610BD00100140DA
:10094000B400002070B500F0B1FC044601E0D4F81A
:10095000804014B160780128F9D1FFF7DFFF054628
:100960007DB154B90D2D06D1012000F00DF80446DB
:100970001CB9012070BD0020FCE72946204600F08C
:1009800073FF0020F6E7000030B5054600F0EAFCF2
:1009900003460BB9002030BD2946184600F08EFCF6
:1009A0000948006810B9084803600BE0064804686D
:1009B00001E0D4F88040D4F880000028F9D1C4F8D0
:1009C0008030DC671846E6E7B00000207047000082
:1009D0002DE9F043C1B0044688464FF000094FF4BA
:1009E000807101A8FFF74DFE14B941B0BDE8F08356
:1009F000B8F1000F00D1F8E75AA0FFF759FCE76CF7
:100A00004046FFF7EDFD002816D0404600F0ACFF51
:100A100004F15402111F404600F0BAFC52A14046B6
:100A2000FFF756FE20B152A14046FFF751FE20B914
:100A30007D68002DE8D02F4682E04EA14046FFF7AA
:100A400047FE10B94D48E0647AE04DA14046FFF7FB
:100A50003FFE28B14BA14046FFF73AFE002822D1C5
:100A6000206D00281FD149A0FFF722FC3D6809E056
:100A700056A35AA101A86A69FFF726FC01A8FFF74F
:100A800017FCED68002DF3D13E6909E053A101A8E0
:100A90003369B268FFF718FC01A8FFF709FC766814
:100AA000002EF3D14CE051A14046FFF711FE28B9CA
:100AB00050A0FFF7FDFB0120207041E03D680FE0F2
:100AC00040466969FFF704FE48B9206D08B92F4612
:100AD00002E04BA0FFF7ECFB4FF0010902E0ED68EC
:100AE000002DEDD100BFB9F1000F23D13E691EE00A
:100AF0004046B168FFF7ECFDC0B94FF00109206D29
:100B000001280DD144A1606DFFF7E2FD40B943A17A
:100B100001A87269FFF7D8FB01A8FFF7C9FB04E041
:100B2000F06810B12046F168884702E07668002E30
:100B3000DED100BFB9F1000F02D13BA0FFF7B8FB37
:100B40002078042809D13DA101A87A69FFF7BCFBF0
:100B500001A8FFF7ADFBE76401E00848E06400BFCF
:100B600043E700000A0D0000717569740000000081
:100B70007100000065786974000000009800002092
:100B80003F00000068656C70000000002D20436F7E
:100B90006D6D616E64202D2D2D2D2D2D2D2D2D2D66
:100BA000204465736372697074696F6E2D2D2D2DED
:100BB0002D2D2D2D2D2D2D2D2D2D2D2D2D2D2D2D65
:100BC0002D2D2D2D2D2D2D0A0D000000636F6D6D27
:100BD000616E64204E6F646500000000252D313584
:100BE00073202D2025730A0D000000006C6F676FC5
:100BF000757400006C6F676F75742E0A0D0000002D
:100C0000696E76616C696420706172616D6574658E
:100C100072210A0D000000002F3F0000757361670C
:100C2000653A2025730A0D00696E76616C6964204F
:100C3000636F6D6D616E64210A0D000025733E00C7
:100C400030B10749096841F48061054A116005E047
:100C50000349096821F48061014A1160704700006E
:100C6000003C024070B504460A460026092502B938
:100C700009E0012A01D1160205E0022A01D116027B
:100C800001E04FF4407600F09FF80546092D28D189
:100C90001548006820F44070134908600846006851
:100CA000304308600846006820F0F80008600846F5
:100CB000006844F0020108430B49086008460068D8
:100CC00040F48030086000F07FF805460648006870
:100CD00020F00200044908600846006820F0F8008F
:100CE0000860284670BD0000103C024009201349EE
:100CF000096801F48031B1F5803F01D101201CE089
:100D00000E49096801F0100109B1062015E00B49F0
:100D1000096801F4807109B102200EE007490968F1
:100D200001F0EF0109B1072007E00449096801F06B
:100D3000020109B1082000E0092070470C3C024084
:100D40000348006840F00040014908607047000017
:100D5000103C024030B502460C46092500F034F83C
:100D60000546092D19D10E48006820F440700C4941
:100D700008600846006840F4007008600846006893
:100D800040F001000860146000F01EF805460448B9
:100D9000006820F0010002490860284630BD0000CC
:100DA000103C02400548006800F0004028B10448AB
:100DB00002490C390860034808607047103C024043
:100DC00023016745AB89EFCD08B509200090FFF7F7
:100DD0008DFF009002E0FFF789FF00909DF8000072
:100DE0000128F8D09DF8000008BD000051B1820034
:100DF000A2F1C042126842F001038200A2F1C04297
:100E0000136009E08200A2F1C0421268034B1A404D
:100E10008300A3F1C0431A6070470000FEFF0F007B
:100E2000D0E901121143C2681143026911434269BA
:100E3000114382691143C2691143026A1143426A34
:100E40001143826A1143C26A1143026B1143026863
:100E50009200A2F1C0421160816808290BD101689B
:100E60008900A1F1C041096841F040020168890090
:100E7000A1F1C0410A60416B0968426B526841EAC6
:100E80000211426B926841EA0221426B928941EA67
:100E90000241426B128A41EA0251426B127D41EAE1
:100EA0000261426B926911430268521C9200A2F1E6
:100EB000C0421160C16AB1F5804F1BD1816B0968D6
:100EC000826B526841EA0211826B926841EA022108
:100ED000826B128A41EA0251826B127D41EA026101
:100EE000826B9269114302689200A2F1C042C2F87B
:100EF000041107E06FF0704201688900A1F1C04160
:100F0000C1F804217047000000B599B001217A2092
:100F100000F080FA0121084600F08CFA4FF40040FE
:100F2000179001208DF8600000208DF862000220EB
:100F30008DF8610001208DF8630017A9A04800F02A
:100F400049F94FF63370179002208DF860000020A9
:100F50008DF8620003208DF8610001208DF8630098
:100F600017A9984800F036F94FF6837017900220C1
:100F70008DF8600000208DF8620003208DF861007C
:100F800001208DF8630017A98F4800F023F94FF274
:100F90003F00179002208DF8600000208DF862005D
:100FA00003208DF8610001208DF8630017A98748A0
:100FB00000F010F940F23F40179002208DF86000D9
:100FC00000208DF8620003208DF8610001208DF86B
:100FD000630017A97E4800F0FDF80C220021794833
:100FE00000F040F90C220121764800F03BF90C2278
:100FF0000421744800F036F90C220521714800F0F4
:1010000031F90C2208216F4800F02CF90C2209213B
:101010006C4800F027F90C220A216A4800F022F9F6
:101020000C220B21674800F01DF90C22114665487F
:1010300000F018F90C220D21624800F013F90C227F
:101040000E21604800F00EF90C220F215D4800F0DF
:1010500009F90C2200215C4800F004F90C2201215E
:10106000594800F0FFF80C220721574800F0FAF821
:101070000C220821544800F0F5F80C2209215248AE
:1010800000F0F0F80C220A214F4800F0EBF80C2297
:101090000B214D4800F0E6F80C2211464A4800F0BA
:1010A000E1F80C220D21484800F0DCF80C220E215A
:1010B000454800F0D7F80C220F21434800F0D2F841
:1010C0000C220021414800F0CDF80C2201213F48BC
:1010D00000F0C8F80C2202213C4800F0C3F80C22B2
:1010E00003213A4800F0BEF80C220421374800F0F2
:1010F000B9F80C220521354800F0B4F80C2211464D
:10110000324800F0AFF80C220D21304800F0AAF868
:101110000C220E212D4800F0A5F80C220F212B489F
:1011200000F0A0F80C220021294800F09BF80C22C6
:101130000121274800F096F80C220221244800F0F3
:1011400091F80C220321224800F08CF80C22042193
:101150001F4800F087F80C2205211D4800F082F896
:101160000C220A211A4800F07DF80020019002901C
:10117000082003900020049005900690079004201A
:101180000890002009900A9010200B9000200C90ED
:101190000E900D900F9010904FF480501190002001
:1011A00012901390149001A81590169008A8FFF7BC
:1011B00037FE01210420FFF719FE19B000BD000021
:1011C00000040240000C02400010024000140240E3
:1011D00000180240F0B50A4600210023002400BF99
:1011E0003DE0012505FA01F3156805EA03049C4278
:1011F00034D105684F000326BE40B543056015791C
:101200004E00B5400668354305601579012D02D0C2
:101210001579022D16D185684F000326BE40B543CF
:10122000856055794E00B5408668354385604568D0
:1012300001268E40B5434560456896798E40B6B22A
:1012400035434560C5684F000326BE40B543C560C1
:10125000D5794E00B540C6683543C560491C102994
:10126000BFD3F0BDF0B5002300244D07ED0E02FA08
:1012700005F3CE1000F1200555F826504E07F70E65
:101280000F26BE40B543CF1000F1200646F8275088
:10129000CE1000F1200555F8265045EA0304CE1083
:1012A00000F1200545F82640F0BD00000148006827
:1012B00070470000B000002000BFFEE74170002230
:1012C00080F848204260C0F88020C2670122027086
:1012D000704700BFFEE7704770B5002100230F2262
:1012E000C4781CB3174C246804F4E064C4F5E064CB
:1012F000C4F30721C1F10404E3B20A4144789C40DD
:10130000E1B28478144021430C07210E0E4C05787D
:101310006155047804F01F050124AC4005786D1177
:10132000AD0005F1E025C5F8004109E0047804F0BE
:101330001F050124AC40054D0678761145F826407E
:1013400070BD00000CED00E000E400E080E100E092
:1013500002490143024A1160704700000000FA058B
:101360000CED00E000210CE001EB4110074A12F8FF
:10137000200020B901EB411002EB80007047481CAF
:1013800081B20129F0DB0020F8E70000B808002056
:101390002DE9F04705468846914600262846FFF786
:1013A0001FF98246002700E0761CA85D202802D0A5
:1013B000A85D0028F8D10020A855344614E0641C2C
:1013C00000E0641C285D2028FBD0264600E0641C59
:1013D000285D202802D0285D0028F8D1002028555B
:1013E000A81949F827007F1C5445E8DBC8F80070AD
:1013F000BDE8F0877047000000B5A1B08022044925
:1014000001A8FFF70CF901A8FEF752FF21B000BDBB
:10141000D424000829B1064A12680243044B1A601A
:1014200004E0034A12688243014B1A6070470000CF
:101430003038024029B1064A12680243044B1A6050
:1014400004E0034A12688243014B1A6070470000AF
:101450003838024029B1064A12680243044B1A6028
:1014600004E0034A12688243014B1A60704700008F
:1014700044380240F0B50021002200240225002655
:101480000223324F3F6807F00C0121B1042905D037
:10149000082937D105E02E4F076036E02D4F076051
:1014A00033E02A4F3F1F3F68C7F38056274F3F1F47
:1014B0003F6807F03F036EB1264FB7FBF3F7DFF845
:1014C0008CC0ACF1040CDCF800C0CCF3881C07FB2A
:1014D0000CF40CE01E4FB7FBF3F7DFF870C0ACF173
:1014E000040CDCF800C0CCF3881C07FB0CF4174F8D
:1014F0003F1F3F68C7F301477F1C7D00B4FBF5F732
:10150000076002E0124F076000BF00BF0F4F3F6847
:1015100007F0F0010909104F7A5C0768D74047606F
:101520000A4F3F6807F4E051890A0B4F7A5C47681D
:10153000D7408760054F3F6807F46041490B064F6D
:101540007A5C4768D740C760F0BD000008380240A9
:101550000024F40000127A000C00002001461C4810
:10156000814201D2002070471A48814201D20820EE
:10157000F9E71948814201D21020F4E71748814267
:1015800001D21820EFE71648814201D22020EAE775
:101590001448814201D22820E5E71348814201D254
:1015A0003020E0E71148814201D23820DBE71048C3
:1015B000814201D24020D6E70E48814201D2482024
:1015C000D1E70D48814201D25020CCE75820CAE72C
:1015D000004000080080000800C00008000001086A
:1015E00000000208000004080000060800000808C7
:1015F00000000A0800000C0800000E0801460868F8
:10160000704700002DE9F04704460E4617464FF09C
:1016100009080025A946B4F1006F02D304F00300C5
:1016200008B1BDE8F087FFF7BDFB0020FFF708FB1E
:10163000254604EB87091848854215D211E0284653
:10164000FFF7DCFF401C58B12846FFF787FF8246B2
:101650000221FFF707FB8046B8F1090F01D002E035
:101660002D1D4D45EBD300BFB8F1090F0CD108E09B
:1016700020463168FFF76EFB092800D003E0241DE7
:10168000361D4C45F4D300BF0120FFF7D9FAFFF710
:1016900057FB00BFC5E700000000FF1F70470000B8
:1016A0000CB50020019000903448006840F4803070
:1016B0003249086000BF3148006800F400300090F3
:1016C0000198401C0190009818B90198B0F5A04FFE
:1016D000F1D12A48006800F4003010B101200090D8
:1016E00001E0002000900098012846D123484030B6
:1016F000006840F08050214940310860204800686F
:1017000040F440401E4908601C48083000681B49EE
:10171000083108600846006840F400400860084648
:10172000006840F4A05008601648091F0860081FB0
:10173000006840F08070091F086000BF0F48006813
:1017400000F000700028F9D040F205700E490860E2
:101750000A480830006820F0030008490831086092
:101760000846006840F00200086000BF03480830E7
:10177000006800F00C000828F8D10CBD00380240C9
:101780000070004008544007003C024070B5044619
:101790000E4606B970BD1FA0FEF78AFD207801280D
:1017A00004D002280ED0032830D11DE00420207080
:1017B0001948E064FFF720FE1748416917A0FEF7BB
:1017C00077FD24E0304600F06DFA054645B115A0DE
:1017D000FEF76EFD0320207065600F48E06416E0A0
:1017E00013A0FEF765FD12E0606800F110013046BD
:1017F000FEF76EFF20B904202070FFF7FDFD04E026
:1018000012A0FEF755FD0220207000E000BF00BFCF
:1018100000BFBFE70A0D0000980000200D0A2573E5
:101820003E00000070617373776F72643A000000CD
:10183000757365726E616D65206572726F720A0DE7
:10184000757365726E616D653A0000007061737347
:10185000776F7264206572726F720A0D75736572AC
:101860006E616D653A00000013B504469DF80400F2
:101870000838092839D2DFE800F00D061F38382073
:101880003838050058E004F10800FFF73CF884F808
:10189000480051E094F8480000280CDD14F8480F87
:1018A000401E2070002114F8482904F108008154DA
:1018B00022A0FEF7FDFC3FE000BF2078042805D001
:1018C00004F108012046FFF761FF04E004F108017C
:1018D0002046FFF77DF8002084F84800002194F8A6
:1018E000482004F10800815426E0FEF7D9FC006886
:1018F0009DF80410405C00F03E00E0B194F8480010
:10190000FF2818DA9DF8041014F8482F2078401C9E
:1019100004F8480904F108008154002194F8482093
:1019200081542078032803D105A0FEF7C1FC02E012
:1019300001A8FEF7BDFC00BF00BF1CBD08200800C9
:101940002A00000010B500F09FF9002202A102A0B9
:1019500000F05EF910BD00007573657200000000B4
:1019600010B5FEF7EFFF10BD002109E0425C412AEF
:1019700005DB425C5A2A02DC425C20324254491C9C
:10198000425C002AF2D17047042808D14FF0E021D0
:10199000096941F004014FF0E022116107E04FF0C6
:1019A000E021096921F004014FF0E0221161704744
:1019B0007047000010B51548006840F470001349E6
:1019C00008601348006840F00100114908600020D9
:1019D0000F49083108600E4800680E4908400C495C
:1019E00008600D48091D0860081F006820F4802069
:1019F000091F0860002006490C310860FFF750FEFF
:101A00004FF0006001498039086010BD88ED00E0AA
:101A100000380240FFFFF6FE1030002410B540F2FF
:101A200025510B4800F033F880B10A480068B0F542
:101A3000702F0BD2064800F0E3F8C1B205480268E7
:101A40000068401C034B18600348815410BD00001F
:101A500000100140080000200000006821B18289C8
:101A600042F40052828104E082894DF6FF731A40ED
:101A70008281704702460020B1F5007F00D100BF8F
:101A800013880B400BB1012000E00020704770B5B7
:101A90000246002400230025002040F66A16B142C9
:101AA00000D100BFC1F3421501F01F03012606FA61
:101AB00003F3012D02D19689334006E0022D02D1B5
:101AC000168A334001E0968A33400C12012606FA4A
:101AD00004F41688344013B10CB1012000E000205A
:101AE00070BDF0B50346002400260025002040F616
:101AF0006A17B94200D100BF1846C1F3421401F081
:101B00001F06012707FA06F5012C01D10C3004E06D
:101B1000022C01D1103000E014301AB107682F43B5
:101B2000076002E00768AF430760F0BD2DE9FF479B
:101B300005460E460024A14600BFA046B08900B16C
:101B400000BF2C8A24F44054F08804432C82AC89D2
:101B500041F20C608443B08831890843718908439D
:101B60000443AC81AC8A24F44074B0890443AC8251
:101B70006846FFF77FFC2048854202D01F48854217
:101B800002D1DDF80C9001E0DDF80890A88900F49E
:101B9000004040B109EBC90000EB09103168490071
:101BA000B0FBF1F707E009EBC90000EB0910316861
:101BB0008900B0FBF1F76420B7FBF0F004012009C5
:101BC000642101FB1078A88900F4004040B1322064
:101BD00000EBC800B0FBF1F000F00700044308E0A0
:101BE000322000EB08106421B0FBF1F000F00F0090
:101BF00004432C81BDE8FF87001001400014014020
:101C000001468888C0F30800704700BFFEE7000067
:101C10002DE9F04105460F4616464FF00008002416
:101C20002BE004EB0410174901EB400090F8210071
:101C300008BB04EB0411134A02EB41002946FEF7EE
:101C4000ABFC04EB04110F4A02EB410101F110005F
:101C50003946FEF7A1FC04EB04100A4901EB4000F1
:101C600080F82060012004EB0411064A02EB4101D8
:101C700081F821008046601CC4B2032CD1DB4046B1
:101C8000BDE8F0813C09002010B584210348FEF72F
:101C9000F8FC66210248FEF7F4FC10BDB8080020ED
:101CA0003C09002070B50546002418E004EB041040
:101CB0000D4901EB400090F8210001280ED104EB02
:101CC00004100A4602EB40012846FEF701FD28B940
:101CD00004EB0410044901EB400070BD641C032CAC
:101CE000E4DB0020F9E700003C09002030380A2836
:101CF00001D20120704700207047014600BF7047A5
:101D000010B504466FF00400FFF73EFEE11704EB48
:101D10005171C1F3C701074A11701046007800EBFA
:101D20004001C1EBC0104FF6FF7101EAC00002494B
:101D3000088010BD000000200200002070B504469D
:101D40004FF4077094FBF0F0C6B24FF4077094FBA9
:101D5000F0F100FB114085B205E04FF4077000F090
:101D600009F8701EC6B2002EF7D115B1284600F052
:101D700001F870BD0146114A12884A434FF0E02332
:101D80005A6100229A611A46126942F001021A61F0
:101D900000BF4FF0E022106900F001021AB100F418
:101DA0008032002AF5D04FF0E022126922F00102C1
:101DB0004FF0E0231A6100229A6170470200002070
:101DC00000BF054A128802F04002002AF9D0C2B2D0
:101DD000014B9A80704700000010014010B5044686
:101DE000206D012803D017A0FEF762FA28E01AA19F
:101DF000606DFEF76DFC20B118A1606DFEF768FC08
:101E000048B918A0FEF754FA19A0FEF751FA23A01A
:101E1000FEF74EFA10BD2CA1606DFEF759FC18B903
:101E2000012000F031F90BE029A1606DFEF750FCB4
:101E300018B9022000F028F902E002A0FEF738FAF3
:101E400000BFE7E709617267756D656E74206572A2
:101E5000726F720D0A0000003F00000068656C7030
:101E60000000000020617267763A0D0A0000000051
:101E7000202020207372616D20202020646F776EF7
:101E80006C6F616420617070206F66207372616D89
:101E90002D737461727475700D0A0000202020206B
:101EA000666C617368202020646F776E6C6F61646C
:101EB00020617070206F6620666C6173682D73748A
:101EC00061727475700D0A007372616D000000001C
:101ED000666C6173680000007047704710B5044677
:101EE000206D012803D017A0FEF7E2F928E01AA11F
:101EF000606DFEF7EDFB20B118A1606DFEF7E8FB09
:101F000048B918A0FEF7D4F919A0FEF7D1F921A01D
:101F1000FEF7CEF910BD29A1606DFEF7D9FB18B907
:101F2000012000F0E3F90BE026A1606DFEF7D0FB85
:101F300018B9022000F0DAF902E002A0FEF7B8F9C1
:101F400000BFE7E709617267756D656E74206572A1
:101F5000726F720D0A0000003F00000068656C702F
:101F60000000000020617267763A0D0A0000000050
:101F7000202020207372616D2020202073746172F4
:101F8000747570206170702066726F6D207372615D
:101F90006D0D0A0020202020666C617368202020CF
:101FA00073746172747570206170702066726F6DE9
:101FB00020666C6173680D0A000000007372616D29
:101FC00000000000666C61736800000010B50446F4
:101FD00001A0FEF76DF910BD0D0A7074682D626FD7
:101FE0006F742056657273696F6E3A2056312E30C9
:101FF0000D0A000010B50446206807490840B0F1FA
:10200000005F08D16068054908602068FEF725F97F
:1020100002480068804710BD0000FE2F1C00002011
:102020002DE9F05F0746884691460025BB464446A9
:10203000AA461DE0E0780606A07846EA00466078E9
:1020400046EA002620780643241D2846691C8DB2E6
:102050000C4941F82060B5F5007F07D100254FF409
:1020600000725846FFF7CEFA0BF5006B0AF1040A2E
:10207000CA45DFD325B12A4602495846FFF7C2FABE
:10208000BDE8F09FB80000202DE9F041054600278B
:102090000024A04600263DA0FEF70AF9012000F02A
:1020A000DBF9394645A0FEF703F919E04948006815
:1020B00098B148480068874206D14648046800271E
:1020C0000020444908600CE04248076842A0FEF73F
:1020D000EFF839463CA0FEF7EBF80A20FFF72EFE9A
:1020E000E4E700BF3CA0FEF7E3F821463EA0FEF780
:1020F000DFF8002000F0B0F9002C42D0012D27D1EC
:10210000B4F5C83F04D964213AA0FEF7D1F83BE00A
:102110004448406800F07F40B0F1005F14D142A015
:10212000FEF7C6F8DFF81881002607E03D48805D1D
:1021300088F8000008F10108701CC6B2A642F5D369
:1021400040A0FEF7B5F81FE041A0FEF7B1F81BE094
:10215000022D19D13348406800F07F40B0F1006F84
:102160000BD144A0FEF7A4F822462E494748FFF7BA
:1021700057FF34A0FEF79CF806E045A0FEF798F85C
:1021800002E04CA0FEF794F8BDE8F0812073746182
:1021900072742072656365697665206170702C20A9
:1021A000706C6561736520646F6E2774207479703C
:1021B000657772697465210D0A00000020726563FD
:1021C0006569766564203078253038582042797406
:1021D0006500000008000020080808080808080832
:1021E0000808080808000000253038582042797493
:1021F000650D0A002072656365697665642066690D
:102200006C65206C6172676572207468616E207302
:1022100072616D2073697A652025644B422E0D0A28
:10222000000000000000006820777269746520617A
:10223000707020746F207372616D2E2E2E0000005E
:1022400000100020080808206F6B210D0A00000014
:102250002072656365697665642066696C652069CE
:1022600073206E6F74207372616D206170702E0D1B
:102270000A00000020777269746520617070207414
:102280006F20666C6173682E2E2E0000000001081E
:102290002072656365697665642066696C6520698E
:1022A00073206E6F7420666C617368206170702E8D
:1022B0000D0A0000206E6F206170702E0D0A000064
:1022C0004FF4A060FFF744F8A820FFF719FD4FF482
:1022D000E13000F07FF8FEF717FEFFF733FB04E074
:1022E000FFF73EFB0A20FFF729FDF9E710B504468A
:1022F000012C11D11448406800F07F40B0F1005F1C
:1023000006D112A0FDF7D4FF0F48FFF773FE1AE0C5
:1023100015A0FDF7CDFF16E0022C11D11948406839
:1023200000F07F40B0F1006F06D117A0FDF7C0FFAD
:102330001448FFF75FFE06E01AA0FDF7B9FF02E0C0
:102340001FA0FDF7B5FF10BD0010002020737461C1
:1023500072747570206170702066726F6D20737278
:10236000616D2E0D0A0000002061707020696E20E2
:102370007372616D206973206572726F72210D0A2C
:102380000000000000000108207374617274757011
:10239000206170702066726F6D20666C6173682EAC
:1023A0000D0A00002061707020696E20666C6173F8
:1023B00068206973206572726F72210D0A00000037
:1023C00020756E6B6E6F7720617070207479706508
:1023D000210D0A0010B586B0044601210846FFF71A
:1023E00019F801211020FFF735F8072209211848B4
:1023F000FEF738FF07220A211548FEF733FF4FF496
:10240000C060049002208DF814008DF815000020A3
:102410008DF8160001208DF8170004A90C48FEF76E
:10242000D9FE00940020ADF80400ADF80600ADF828
:102430000800ADF80C000C20ADF80A00694605480C
:10244000FFF774FB01210348FFF708FB06B010BD3E
:10245000000002400010014038B50446A4B101223A
:1024600040F225510C48FFF73CFB25208DF8000079
:1024700003208DF801008DF8020001208DF8030083
:102480006846FEF729FF05E0002240F22551024888
:10249000FFF727FB38BD00000010014010B50029F0
:1024A0000AD00878002807D005487844FEF710F9CC
:1024B000002801D0002010BD0248784410BD000063
:1024C000BA010000B20100004FF04070E1EE100AC6
:1024D000704700000D0A57656C636F6D6520746F5F
:1024E000207573652074686520227074682D626F92
:1024F0006F74220D0A0000000000000000000000C0
:1025000000000000000000000000000000000000CB
:1025100000000000000000000000000000000000BB
:1025200000000000000000000000000000000000AB
:10253000000000000000000000000000000000009B
:10254000000000000000000000000000000000008B
:1025500000000000303132333435363738394142EB
:1025600043444546403058003031323334353637F5
:1025700038396162636465664030780004000008A1
:102580000000000000000002000100001000000038
:1025900073686F772076657273696F6E2E00000026
:1025A000646F776E6C6F6164206170702E00000044
:1025B0007374617274206170702E000072657365AF
:1025C000742E0000736574626175642072617465B5
:1025D0000A0D506172616D657465723A203936304A
:1025E000307C31393230307C33383430307C3537E0
:1025F0003630307C313135323030000073657462F2
:102600006175640073657420626175642072617421
:1026100065000000646F776E6170700073746172A2
:1026200074617070000000007665720072657365F9
:10263000740000000D7074682D626F6F74000000EC
:10264000000000007427000800000020B80000000F
:10265000C40100082C280008B8000020500D00001C
:10266000E00100081001000043000000F8FFFFFF38
:102670000040404040404040404041414141414095
:10268000404040404040404040404040404040404A
:1026900040050202020202020202020202020202D9
:1026A00002202020202020202020200202020202DE
:1026B0000202909090909090101010101010101036
:1026C0001010101010101010101010100202020242
:1026D0000202888888888888080808080808080886
:1026E0000808080808080808080808080202020282
:1026F000400000000000000000000000000000009A
:1027000000000000000000000000000000000000C9
:1027100000000000000000000000000000000000B9
:1027200000000000000000000000000000000000A9
:102730000000000000000000000000000000000099
:102740000000000000000000000000000000000089
:102750000000000000000000000000000000000079
:102760000000000000000000000000000000000069
:102770000000000000000000000000000000000059
:102780000000000001020304010203040607080917
:10279000000000000000000038000020282600088B
:1027A000CD1F0008902500084026000820000020CA
:1027B00050000020FC250008DB1E0008042600084D
:1027C000C425000838000020680000202C260008DE
:1027D000D91E0008BC250008402600085000002033
:1027E0008000002014260008DD1D0008A025000838
:1027F0004026000868000020000000001C26000899
:10280000DD1E0008B025000840260008000000007A
:102810000000000000000000000000002000002078
:0C2820003426000800000000000000004A
:040000050800018965
:00000001FF
